:020000040800F2
:10000000A8030020C52D0008E30D0008E50D000839
:10001000E90D0008ED0D0008F10D000800000000DA
:10002000000000000000000000000000F50D0008C6
:10003000F70D000800000000F90D0008FB0D000896
:10004000DB2D0008DB2D0008DB2D0008DB2D000870
:10005000DB2D0008DB2D0008DB2D0008DB2D000860
:10006000DB2D0008DB2D0008DB2D0008DB2D000850
:10007000DB2D0008DB2D0008DB2D0008DB2D000840
:10008000DB2D0008DB2D0008DB2D0008DB2D000830
:10009000DB2D0008DB2D0008DB2D0008DB2D000820
:1000A000DB2D0008DB2D0008DB2D0008DB2D000810
:1000B000DB2D0008DB2D0008DB2D0008DB2D000800
:1000C000DB2D0008DB2D0008DB2D0008DB2D0008F0
:1000D000DB2D0008DB2D0008DB2D0008DB2D0008E0
:1000E000DB2D0008DB2D0008DB2D000800F002F8F6
:1000F00000F03CF80AA090E8000C82448344AAF186
:100100000107DA4501D100F031F8AFF2090EBAE883
:100110000F0013F0010F18BFFB1A43F0010318473B
:10012000645D0000845D0000103A24BF78C878C187
:10013000FAD8520724BF30C830C144BF04680C60ED
:10014000704700000023002400250026103A28BF35
:1001500078C1FBD8520728BF30C148BF0B60704739
:100160001FB503F028FC1FBD10B510BD03F04EFCF9
:100170001146FFF7F5FF00F027FE03F06CFC03B417
:10018000FFF7F2FF03BC03F075FC00000B49D1F848
:1001900000C04A685CF8043B1068184442F8040B3D
:1001A0008C4528BFA1F1DC0C8A4228BFA1F1DC02FA
:1001B000C1F800C04A6020F00040704740010020B4
:1001C00070B505460E4614463146284602F018F929
:1001D000204602F0B8F870BD2DE9F05F04460D46E8
:1001E00016461F46301B401C1FFA80FA781B401C25
:1001F0001FFA80FB3B4632462946204602F0BAF8F9
:100200004FF000080FE04FF0000906E00A9802F0F6
:100210009AF809F101001FFA80F9D145F6DB08F1DF
:1002200001001FFA80F8D845EDDBFE484088401EEB
:1002300083B2FC480088401E82B20021084602F0CA
:1002400099F8BDE8F09F2DE9FF4F85B081468A46B9
:100250000020049003900798A0EB09050898A0EBF4
:100260000A06CDF80890CDF804A0002D01DD012785
:1002700005E00DB9002702E04FF0FF376D42002E78
:1002800002DD4FF0010806E016B94FF0000802E069
:100290004FF0FF387642B54201DD2C4600E034468F
:1002A0004FF0000B21E0019A91B2029A90B202F055
:1002B000B1F80498284404900398304403900498BB
:1002C000A04205DD0498001B049002983844029077
:1002D0000398A04205DD0398001B03900198404459
:1002E00001900BF101001FFA80FB601C8345DADDF1
:1002F00009B0BDE8F08F2DE9F04104460D461646E1
:100300001F462B46324629462046FFF79CFF3B46B8
:10031000224629462046FFF796FF3B46324639469D
:100320002046FFF790FF3B46324629463046FFF70E
:100330008AFFBDE8F081F8B504460D4616461F4613
:10034000B94800883B463246294600902046FFF7D0
:1003500043FFF8BD2DE9F04104460D4616461F4601
:10036000DDF81880EA1991B2A21990B24246FFF75F
:1003700027FFEA1991B2A21B90B24246FFF720FF75
:10038000EA1B91B2A21990B24246FFF719FFEA1B8D
:1003900091B2A21B90B24246FFF712FFAA1991B286
:1003A000E21990B24246FFF70BFFAA1991B2E21B85
:1003B00090B24246FFF704FFAA1B91B2E21990B235
:1003C0004246FFF7FDFEAA1B91B2E21B90B24246E5
:1003D000FFF7F6FEBDE8F0812DE9FF4F81B08246C0
:1003E00017469846DDF838B0002445464FEA4800E5
:1003F000C0F10306BBF1000F1FD01BE0A14608E0CF
:100400004B462246009750460299FFF7A3FF09F199
:100410000109A945F4DD002E04DA042000FB046084
:10042000861D06E0601B042101FB006000F10A0646
:100430006D1E641CAC42E1DD18E015E02B4622463F
:10044000009750460299FFF785FF002E04DA04203A
:1004500000FB0460861D06E0601B042101FB0060B8
:1004600000F10A066D1E641CAC42E7DD05B0BDE874
:10047000F08F2DE9F04704460D4616461F46DDE98C
:1004800008893B46324629462046FFF7DCFE4B46AC
:10049000424639463046FFF7D6FE2B4622464946AD
:1004A0004046FFF7D0FEBDE8F08702880B88038046
:1004B0000A8070472DE9FF4F85B000260027BDF860
:1004C0001800BDF82010884207DD08A906A8FFF72C
:1004D000ECFF07A905A8FFF7E8FFBDF82000BDF86D
:1004E0004C10884207DD08A913A8FFF7DEFF07A913
:1004F00012A8FFF7DAFFBDF81800BDF820108842F7
:1005000007DD08A906A8FFF7D0FF07A905A8FFF790
:10051000CCFFBDF81800BDF84C10884238D1BDF8AA
:10052000140003900490BDF81C00BDF81010884220
:1005300003DABDF81C00049008E0BDF81C00BDF80B
:100540000C10884202DDBDF81C000390BDF8480085
:10055000BDF81010884203DABDF84800049008E0A6
:10056000BDF84800BDF80C10884202DDBDF8480017
:1005700003902D4800880090BDF81830BDF80C207D
:100580001946BDF81000FFF727FE09B0BDE8F08F4F
:10059000BDF81C00BDF81410A0EB010BBDF8200045
:1005A000BDF81810401A0290BDF84800BDF81410AC
:1005B000451ABDF84C00BDF81810A0EB0109BDF8B4
:1005C0004800BDF81C10A0EB010ABDF84C00BDF8B6
:1005D0002010401A0190BDF82000BDF84C10884250
:1005E00002D1BDF8208004E0BDF82000401E1FFAB3
:1005F00080F8BDF818402CE0029896FBF0F0BDF8AA
:100600001410084480B2049097FBF9F0BDF8141060
:10061000084480B203905E442F44BDF81000BDF83A
:100620000C1003E0540000201E000020884203DD6F
:1006300003A904A8FFF739FFFE480088234600906D
:10064000BDF80C202146BDF81000FFF7C5FD601C69
:1006500084B24445D0DDBDF82000201A00FB0AF624
:10066000BDF81800201A00FB05F727E0019896FB5B
:10067000F0F0BDF81C10084480B2049097FBF9F02C
:10068000BDF81410084480B2039056442F44BDF8BE
:100690001000BDF80C10884203DD03A904A8FFF781
:1006A00004FFE448008823460090BDF80C20214652
:1006B000BDF81000FFF790FD601C84B2BDF84C003F
:1006C0008442D3DD00BF60E72DE9FF4F83B0814650
:1006D0008A469346DDE91064D64800880290A6F168
:1006E0002000C6B204EBD47009EB6000401E82B259
:1006F0000AEB0400401E83B251464846019401F0C3
:1007000039FE129850BB002525E00C2C07D106EBD2
:100710004600C94901EB800010F8058004E0C74895
:1007200000EB061010F8058000270DE008F001002E
:1007300018B1584601F007FE02E0069801F003FEEA
:100740004FEA6808781CC7B204EBD471B7EB610FAD
:10075000ECDB681CC5B2A542D7DB2DE0002529E003
:100760000C2C07D106EB4600B34901EB800010F8D2
:10077000058004E0B14800EB061010F80580002762
:1007800011E0AC48A0F800B008F0010038B10AEB65
:10079000050291B209EB070290B201F03BFE4FEA6D
:1007A0006808781CC7B204EBD471B7EB610FE8DBC3
:1007B000681CC5B2A542D3DB9E4902980880A048B8
:1007C0004088401E83B29E480088401E82B20021AD
:1007D000084601F0CFFD07B0BDE8F08F2DE9FE43DC
:1007E00006460F4615461C46DDF828801DE0944855
:1007F0000088401EB04204DB91484088401EB84249
:1008000001DABDE8FE8320788DE821018D48038858
:100810008848028839463046FFF756FF284605EBE0
:10082000D07106EB61018EB2641C20787E2802DC58
:1008300020782028DBDA00BFE3E710B5024601206C
:1008400000E050430B1EA1F10104E1B2F9D110BD4B
:100850002DE9FF4F83B0074691461E46109C4FF08E
:10086000000A002543E0701B401EC1B20A20FFF7BA
:10087000E4FFB9FBF0F00A21B0FBF1F201FB120832
:10088000BAF1000F1BD1701EA84218DDB8F1000F9D
:1008900013D100202021A346CDE90014029004EBDF
:1008A000DB71491001FB057188B266490B8861490B
:1008B0000A880499FFF708FF17E04FF0010A0021AA
:1008C00008F13000C0B2A346CDE90141009004EB2D
:1008D000DB71491001FB057188B25A490B885549F3
:1008E0000A880499FFF7F0FE00BF681CC5B2B54244
:1008F000B9DB07B0BDE8F08F2DE9FC5F05468846FF
:1009000091469A46DDF830B00095422001900024CF
:100910005FE004EB04104C4911F810009BF8001044
:10092000884253D104EB0410474901EB4000407862
:100930009BF80110884249D108F10F0083B205F1FC
:100940000F0082B24146284601F014FD00263BE02C
:10095000002734E00D9890B904EB04103A4901EBFC
:100960004000801C805D80213941084018B1484614
:1009700001F0E9FC21E0504601F0E5FC1DE02D48C6
:10098000A0F8009004EB04102F4901EB4000801CFC
:10099000805D80213941084018B14146284601F068
:1009A00039FD681C85B20098281A102805D1009DD1
:1009B00008F101001FFA80F803E0781CC7B2082F85
:1009C000C8DB00BF701CC6B2202EC1DB00BF601C9C
:1009D00084B2019884429CDB19484088401E83B24F
:1009E00017480088401E82B20021084601F0C2FC70
:1009F000BDE8FC9F2DE9FC5F0546884691469A4676
:100A0000DDF830B0009507200190002476E004EB7B
:100A1000840000EB44100D4911F810009BF8001001
:100A2000884268D104EB840000EB4410074901EBD5
:100A300040000DE01E000020803A0008F43E00084F
:100A40005400002020000020E4440008A84D0008C5
:100A500040789BF8011088424DD108F1170083B20D
:100A600005F1170082B24146284601F083FC0026BA
:100A70003FE0002738E00D98A0B904EB840000EBBC
:100A80004410CD4901EB4000801C805D802139413C
:100A9000084018B1484601F056FC23E0504601F0EA
:100AA00052FC1FE0C548A0F8009004EB840000EB66
:100AB0004410C14901EB4000801C805D8021394118
:100AC000084018B14146284601F0A4FC681C85B2D4
:100AD0000098281A182805D1009D08F101001FFA76
:100AE00080F803E0781CC7B2082FC4DB00BF701C7D
:100AF000C6B2482EBDDB00BF601C84B201988442A0
:100B000085DBAF484088401E83B2AD480088401E58
:100B100082B20021084601F02DFCBDE8FC9F2DE9C2
:100B2000FC5F0546884691469A46DDF830B0009550
:100B30000420019000245FE004EB8410A14911F827
:100B400010009BF80010884253D104EB84109D499B
:100B500001EB400040789BF80110884249D108F130
:100B60001F0083B205F11F0082B24146284601F002
:100B700001FC00263BE0002734E00D9890B904EB1F
:100B80008410904901EB4000801C805D8021394138
:100B9000084018B1484601F0D6FB21E0504601F06C
:100BA000D2FB1DE08548A0F8009004EB8410854935
:100BB00001EB4000801C805D80213941084018B164
:100BC0004146284601F026FC681C85B20098281A88
:100BD000202805D1009D08F101001FFA80F803E0EC
:100BE000781CC7B2082FC8DB00BF701CC6B2802EAD
:100BF000C1DB00BF601C84B2019884429CDB70485A
:100C00004088401E83B26E480088401E82B2002198
:100C1000084601F0AFFBBDE8FC9F2DE9FF4F83B014
:100C2000064688469146DDE91147109DB2464FF0D1
:100C3000000B71E0BBF1000F40D104EBD471604AAE
:100C40001288A2EB6101B14204DB5D494988091BAE
:100C5000414502DA07B0BDE8F08F2878802802DD30
:100C60004FF0010B58E028780D2806D108EB04005E
:100C70001FFA80F856466D1C1EE0102C0DDD102169
:100C800028788DE883004A4641463046069BFFF7A8
:100C90001BFD06F1080086B20EE028788DE8910071
:100CA0004A4641463046069BFFF70EFD204604EBC0
:100CB000D07106EB61018EB26D1C2DE040480088BA
:100CC000001BB04204DB3E484088001B404500DA70
:100CD000C0E74FF0000B202C08D1CDE900574A4661
:100CE00041463046069BFFF71AFF12E0182C08D148
:100CF000CDE900574A4641463046069BFFF77AFE4B
:100D000007E0CDE900574A4641463046069BFFF7CB
:100D1000F3FDAD1C301986B2287800288AD100BFB7
:100D200098E72DE9FE4F0E4617469846DDE90D9AE5
:100D30000C9C204602F048FE85B221490988A1EBAF
:100D4000C50000EBD071C1F34F0B43463A46314624
:100D500058468DE81006FFF760FFBDE8FE8F2DE9CD
:100D6000F04706460F46154607F1270083B206F105
:100D7000270082B23946304601F0FCFA00240AE02E
:100D800015F8149005EB440090F8018049EA08201A
:100D900001F0D9FA641CB4F5C86FF1DB084840884B
:100DA000401E83B206480088401E82B200210846D9
:100DB00001F0E0FABDE8F087A84D00081E00002011
:100DC00054000020AE4F000800F087F8482002F0E1
:100DD00087FD01F0CBFB03E000F0CCFA01F04EF907
:100DE000FAE7704700BFFEE700BFFEE700BFFEE77F
:100DF00000BFFEE770477047704770470CB5002092
:100E0000019000906C48006840F480306A490860A6
:100E100000BF6948006800F4003000900198401C51
:100E20000190009818B90198B0F5A06FF1D162480F
:100E3000006800F4003010B10120009001E00020B3
:100E400000900098012843D15C48006840F01000F1
:100E50005A4908600846006820F003000860084608
:100E6000006840F0020008605348406852494860FA
:100E70000846406848600846406840F48060486022
:100E80000846406820F47C1048600846406840F4FA
:100E9000E81048600846006840F08070086000BFB5
:100EA0004548006800F000700028F9D042484068CA
:100EB00020F00300404948600846406840F00200C6
:100EC000486000BF3C48406800F00C000828F9D199
:100ED0000CBD10B5FFF792FF10BD10B53648006885
:100EE00040F0010034490860084640683449084031
:100EF0003149486008460068324908402E49086078
:100F00000846006820F4802008600846406820F405
:100F1000FE0048604FF41F008860FFF7DAFF4FF0D3
:100F200000602949086010BD10B500210020002292
:100F3000214B5B6803F00C0121B1042906D008297C
:100F400028D107E0214B224C236027E01F4B204C87
:100F5000236023E0184B5B6803F47010164B5B684A
:100F600003F48032022303EB904022B9194B434330
:100F7000174C23600DE0104B5B6803F4003323B182
:100F8000144B4343124C236003E0104B4343104C7B
:100F9000236003E00D4B0E4C236000BF00BF064BE7
:100FA0005B68C3F303130C4CE15C094B1B68CB403B
:100FB000074C236010BD00000010024000200240DA
:100FC0000000FFF8FFFFF6FE08ED00E000127A00D7
:100FD0000000002000093D00040000203EB504464A
:100FE0004FF6FF7001F022FAFE488079002837D1D1
:100FF0001F200090FB480088401E82B2142300216D
:101000000846FFF7E9F81F200090F6484088401E88
:1010100083B2F4480088401E82B2F24840881438F7
:1010200081B20020FFF7D8F8002010211F234FF6CF
:10103000FF72CDE9004102900221FFF772FE00200D
:101040001021E9A2CDE900210290E6484088143839
:1010500081B21F234FF6FF720020FFF762FEB0E05F
:10106000E0488079022837D11F200090DD480088B1
:10107000401E82B2142300210846FFF7ADF81F205E
:101080000090D8484088401E83B2D6480088401E51
:1010900082B2D4484088143881B20020FFF79CF80F
:1010A000002010211F234FF6FF72CDE9004102906E
:1010B0000146FFF736FE00201021CBA2CDE900212A
:1010C0000290C8484088143881B21F234FF6FF723F
:1010D0000020FFF726FE74E0C2488079012838D14D
:1010E0001F200090BF480088401E82B214230021B8
:1010F0000846FFF771F81F200090BA484088401E4C
:1011000083B2B8480088401E82B2B648408814387E
:1011100081B20020FFF760F8002010211F234FF656
:10112000FF72CDE90041029002211520FFF7F9FD81
:1011300000201021ACA2CDE900210290A9484088EE
:10114000143881B21F234FF6FF721520FFF7E9FD17
:1011500037E01F200090A3480088401E82B214236D
:1011600000210846FFF738F81F2000909D4840886E
:10117000401E83B29B480088401E82B29948408836
:10118000143881B20020FFF727F8002010211F2318
:101190004FF6FF72CDE90041029002211520FFF7C2
:1011A000C0FD0020102190A2CDE9002102908D48C1
:1011B0004088143881B21F234FF6FF721520FFF7C5
:1011C000B0FD3EBD2DE9F04106460F4614461D46D2
:1011D0004FF6FF70894908803B4622463946304623
:1011E000FFF731F82B46324639463046FFF72BF8E9
:1011F00048F21040814908806A1E93B291B2721C75
:1012000090B22246FFF71FF844F208207B4908807D
:101210002B46224629463046FFF715F848F2104083
:1012200076490880631E9AB27B1C99B2631E98B2FD
:101230002B46FFF708F844F20820704908802B4637
:10124000224639462046FEF7FEFFBDE8F0813EB556
:101250004EF67D7001F0EAF862490988A1F1620456
:1012600004EBD471491062318AB25E490988A1F158
:10127000620505EBD571C1F34F0055234121FFF7FE
:10128000A1FF002010215EA21F23CDE900210290C2
:101290004FF61F024321FFF744FD52490988A1F18F
:1012A000620404EBD471491062318AB24D49098855
:1012B000A1F1620505EBD571C1F34F0073235F21E6
:1012C000FFF780FF0020102151A24EF67D73CDE97B
:1012D0000021029002466121FFF723FD4149098860
:1012E000A1F1620404EBD471491062318AB23D4924
:1012F0000988A1F1620505EBD571C1F34F00912377
:101300007D21FFF75FFF0020102145A24EF67D737F
:10131000CDE9002102901F227F21FFF702FD314914
:101320000988A1F1620404EBD471491062318AB2D8
:101330002C490988A1F1620505EBD571C1F34F0075
:10134000AF239B21FFF73EFF0020102138A24EF66D
:101350007D73CDE9002102904FF478429D21FFF783
:10136000E0FC40F2DC5002F0D5FA4FF4FA7002F0E3
:10137000D1FA3EBD0EB532A0FFF730FE012010219C
:1013800033A21F23CDE900210290DA024E21002072
:10139000FFF7C7FC0120102129A21F23CDE900215E
:1013A0000290DA0262210020FFF7BBFC012010212D
:1013B0002AA21F23CDE9002102904FF4FC6276217E
:1013C0000020FFF7AEFC0120102128A21F23CDE949
:1013D000002102904FF6E0728A210020FFF7A1FC65
:1013E000012049E0540000205348414E59414E200D
:1013F000454C454354524F4E000000001E00002053
:10140000CDBCD0CECFD4CABEB2E2CAD40000000058
:10141000B4BFC9ABCCEEB3E4B2E2CAD40000000062
:10142000D6D0CEC4CFD4CABEB2E2CAD40000000027
:10143000CDBCC6ACCFD4CABEB2E2CAD40000000054
:10144000D7DBBACFB2E2CAD4B3CCD0F200000000EE
:10145000C9BDD1D2B5E7D7D344495900312E39227D
:1014600053504920535437373839000032343058FC
:10147000323936444F5453001021FEA21F23CDE9C8
:101480000021029000229E211046FFF74AFC40F204
:10149000DC5002F03FFA40F2DC5002F03BFA0EBDA5
:1014A0000EB54FF6FF700090F54843880288002182
:1014B0000846FEF791FE01201021F2A24FF6E073DC
:1014C000CDE9002102901F221E211420FFF7A5FB69
:1014D0004FF4487002F01EFA4FF478400090E8484C
:1014E0004388028800210846FEF776FE012010217D
:1014F000E6A24FF6E073CDE9002102901F221E21E3
:101500001420FFF78AFB4FF4487002F003FA4FF4FF
:10151000FC600090DA484388028800210846FEF704
:101520005BFE01201021DBA24FF6E073CDE9002124
:1015300002901F221E211420FFF76FFB4FF448700A
:1015400002F0E8F91F200090CD484388028800216E
:101550000846FEF741FE01201021D0A24FF6E073AD
:10156000CDE9002102904FF478421E211420FFF7AC
:1015700054FB4FF4487002F0CDF90EBD2DE9F8434D
:101580000024C8A0FFF72AFD4FF6FF700090BC486A
:101590004088143883B2BA48028814210020FEF72C
:1015A0001BFE00BF48E0C54830F81400C44908805D
:1015B000DFF8CCC2BCF8025005EBD57C4FEA6C0CCE
:1015C000ACF1500CC4EB0419CC440CF13C0C1FFAE8
:1015D0008CF3DFF8ACC2BCF8006006EBD67C4FEAB7
:1015E0006C0CACF1500CC4EB0419CC440CF13C0C69
:1015F0001FFA8CF2DFF888C2BCF8027007EBD77CC8
:101600004FEA6C0CACF1500CC4EB0419CC441FFA3B
:101610008CF1DFF86CC2BCF8008008EBD87C4FEA94
:101620006C0CACF1500CC4EB0419CC441FFA8CF0D8
:10163000FEF761FE601CC4B2052CB4DB40F2DC5046
:1016400002F068F94FF6FF7000908D48408814381A
:1016500083B28B48028814210020FEF7BDFD0024D0
:1016600048E0964830F8140095490880DFF810C229
:10167000BCF8026006EBD67C4FEA6C0CACF1500C67
:10168000C4EB0419CC440CF13C0C1FFA8CF3DFF8CA
:10169000F0C1BCF8007007EBD77C4FEA6C0CACF1E2
:1016A000500CC4EB0419CC440CF13C0C1FFA8CF226
:1016B000DFF8CCC1BCF8028008EBD87C4FEA6C0C98
:1016C000ACF1500CC4EB0419CC441FFA8CF1DFF8D8
:1016D000B0C1BCF8005005EBD57C4FEA6C0CACF106
:1016E000500CC4EB0419CC441FFA8CF0FEF723FE17
:1016F000601CC4B2052CB4DB40F2DC5002F00AF9E5
:10170000BDE8F883F8B500246EA0FFF767FC4FF63C
:10171000FF7000905A484088143883B258480288B5
:1017200014210020FEF758FD00BF1FE00020544B9D
:1017300000905D8805EBD5735B10323B04EBC4076A
:1017400007EB0417D9194E4B1E8806EBD6735B10B6
:10175000503B04EBC40707EB0417D819574B33F879
:1017600014201E23FEF738FE601CC4B2052CDDDBFE
:1017700040F2DC5002F0CEF84FF6FF700090404887
:101780004088143883B23E48028814210020FEF7B6
:1017900023FD00241FE00120394B00905D8805EBFC
:1017A000D5735B10323B04EBC40707EB0417D91960
:1017B000334B1E8806EBD6735B10503B04EBC4071B
:1017C00007EB0417D8193D4B33F814201E23FEF7FE
:1017D00003FE601CC4B2052CDDDB40F2DC5002F0DD
:1017E00099F8F8BD0EB53DA0FFF7F8FB00200C21DD
:1017F0003FA24FF6E073CDE9002102901F221E2187
:101800000A20FFF70AFA01200C2144A24FF6E073E8
:10181000CDE9002102901F222D210A20FFF7FDF9BA
:1018200000200C2148A24FF6E073CDE90021029080
:101830001F223C210A20FFF7F0F9002010214AA2C4
:101840004FF6E073CDE9002102901F2250210A20BB
:10185000FFF7E3F9012010214EA24FF6E073CDE926
:10186000002102901F2264210A20FFF7D6F90020F0
:101870001021A5E0323032342D30382D30390000BF
:1018800054000020424C205465737400524544209B
:1018900000000000475245454E200000424C55458F
:1018A00020000000B2E2CAD4323A475549BED8D02F
:1018B000CECCEEB3E4B2E2CAD400000014000020A3
:1018C0001E000020B2E2CAD4333A475549BBADD41A
:1018D000B2CCEEB3E4B2E2CAD4000000B2E2CAD4A1
:1018E000353AD3A2CEC4CFD4CABEB2E2CAD4000025
:1018F000365831323A6162636465666768696A6B5B
:101900006C6D6E6F707172737475767778797A30EA
:1019100031323334353637383900000036583132F9
:101920003A4142434445464748494A4B4C4D4E4F45
:10193000505152535455565758595A303132333406
:101940003536373839000000365831323A7E21407A
:101950002324255E262A28295F2B7B7D3A3C3E3FA7
:101960002F7C2D2B2E000000385831363A616263EF
:101970006465666768696A6B6C6D6E6F70717273AF
:101980007475767778797A30313233343536373842
:1019900039000000385831363A4142434445464701
:1019A00048494A4B4C4D4E4F50515253545556573F
:1019B00058595A303132333435363738390000000F
:1019C000FBA24FF6E073CDE9002102901F2278219F
:1019D0000A20FFF722F94FF4966001F09BFF0EBD3D
:1019E0002DE9FC5F0024FAA0FFF7F8FA4FF6FF702C
:1019F0000090FE484088143883B2FC4802881421C5
:101A00000020FEF7E9FB00BF5DE0F94830F8140064
:101A1000F8490880F548458805EBD5704010143822
:101A2000C4EB0411084481B2F048068806EBD67076
:101A30004010153804EB840200EB820080B2DFF81E
:101A4000ACC3CDE90001BCF8027007EBD77C4FEACC
:101A50006C0CACF1490CC4EB041BDC441FFA8CF396
:101A6000DFF888C3BCF8008008EBD87C4FEA6C0C28
:101A7000ACF1330C04EB840B0CEB8B0C1FFA8CF2E7
:101A8000DFF868C3BCF8029009EBD97C4FEA6C0C14
:101A9000ACF1140CC4EB041BDC441FFA8CF1DFF82E
:101AA0004CC3BCF800A00AEBDA7C4FEA6C0CACF13A
:101AB000500C04EB840B0CEB8B0C1FFA8CF0FEF734
:101AC000D8FC601CC4B2052C9FDB40F2DC5001F056
:101AD00021FF4FF6FF700090C4484088143883B24D
:101AE000C248028814210020FEF776FB00245DE046
:101AF000BF4830F81400BF490880BC48458805EB52
:101B0000D57040101438C4EB0411084481B2B748B2
:101B1000068806EBD6704010153804EB840200EB03
:101B2000820080B2DFF8C4C2CDE90001BCF80270C7
:101B300007EBD77C4FEA6C0CACF1490CC4EB041BEF
:101B4000DC441FFA8CF3DFF8A4C2BCF8008008EB79
:101B5000D87C4FEA6C0CACF1330C04EB840B0CEB2F
:101B60008B0C1FFA8CF2DFF884C2BCF8029009EBF0
:101B7000D97C4FEA6C0CACF1140CC4EB041BDC44B4
:101B80001FFA8CF1DFF864C2BCF800A00AEBDA7C23
:101B90004FEA6C0CACF1500C04EB840B0CEB8B0C8F
:101BA0001FFA8CF0FEF786FC601CC4B2052C9FDB8C
:101BB00040F2DC5001F0AEFEBDE8FC9F0EB58EA0F9
:101BC000FFF70CFA0020102190A24FF6E073CDE948
:101BD000002102901F221E210A20FFF71EF800207C
:101BE000102190A24FF6E073CDE9002102901F2250
:101BF00032210A20FFF711F80120182190A24FF698
:101C0000E073CDE9002102901F2246210A20FFF750
:101C100004F80120202190A24FF6E073CDE90021C5
:101C200002901F2264210A20FEF7F7FF4FF496600E
:101C300001F070FE0EBD0EB58BA0FFF7CFF98F4AF5
:101C40001E210846FFF78BF8012010218CA24FF6C9
:101C5000E073CDE9002102901F224B212A20FEF7DC
:101C6000DCFF864A1E215A20FFF779F80120102157
:101C700083A24FF6E073CDE9002102901F224B2191
:101C80006620FEF7CAFF7D4A1E219620FFF767F8FF
:101C9000012010217AA24FF6E073CDE900210290D5
:101CA0001F224B21A220FEF7B8FF4FF4966001F0EF
:101CB00031FE0EBD10B588B00024724B0FCBCDE9BC
:101CC0000623CDE9040100BF23E0204600F000FC1C
:101CD0006DA0FFF783F90121102204A850F8240019
:101CE0004FF6E073CDE9012100901F221E21142040
:101CF000FEF793FF614A32211E20FFF730F84FF4C0
:101D00007A7001F007FE4FF47A7001F003FE601C58
:101D1000C4B2042CD9DB002000F0DAFB08B010BDFF
:101D200038B55EA0FFF75AF91F20324908805F4896
:101D300001F02CFE00205EA31022642100902820D8
:101D4000FEF74CFD00205FA3102278210090282090
:101D5000FEF744FD4FF4784026490880002424E033
:101D6000FEF714FA42F2107190FBF1F201FB12053A
:101D7000102005232A46642100905A20FEF768FDB2
:101D8000FEF704FA322190FBF1F201FB120510205C
:101D900005232A46782100905A20FEF759FD4FF47A
:101DA000FA7001F0B7FD601CC4B20F2CD8DB38BD4F
:101DB000385831363A7E21402324255E262A2829A8
:101DC0005F2B7B7D3A3C3E3F2F7C2D2B2E0000006D
:101DD000B2E2CAD4343A47554920547269616E67F9
:101DE0006C65CCEEB3E4B2E2CAD40000540000202B
:101DF000140000201E000020B2E2CAD4363AD6D029
:101E0000CEC4CFD4CABEB2E2CAD4000031365831F3
:101E1000363AC9BDD1D2B5E7D7D3444959BBB6D3B9
:101E2000ADC4FA0031365831363A57656C636F6D80
:101E300065C9BDD1D2B5E7D7D344495900000000E8
:101E400032345832343AC9EEDBDACAD0D6D0CEC4F6
:101E5000B2E2CAD40000000033325833323AD7D647
:101E6000CCE5B2E2CAD40000B2E2CAD4373ACDBC63
:101E7000C6ACCFD4CABEB2E2CAD40000B851000882
:101E800051510000385E0008B2E2CAD4383AC6C1E7
:101E9000C4BBD0FDD7AAB2E2CAD40000B6AFCCAC66
:101EA000CAFDD7D6CFD4CABE0000000040E2010070
:101EB000504D322E353A20202020202075672F6D7E
:101EC0003300000020205445503A202020202020BC
:101ED00043000000F8B505460E4614461F4604B9F7
:101EE000F8BD2819401E82B2334631462846009775
:101EF000FEF772F900BFF3E72DE9F05F0746884669
:101F000016469A4640F2C32070434FF47A71B0FBF4
:101F1000F1F000F1010906FB06F000EB560B344628
:101F200071040A0CB91B88B253464146FFF7D2FF31
:101F3000012535E005FB05F004FB040058451AD9DE
:101F40004C4517D96B1E5B041A0C08EB040399B2BD
:101F50007B1B5B1C98B25346FFF7BCFF6B1E5B04F8
:101F60001A0CA8EB040399B27B1B5B1C98B2534676
:101F7000FFF7B0FF641E63041A0C08EB050399B267
:101F80003B1B98B25346FFF7A5FF63041A0CA8EB5E
:101F9000050399B23B1B98B25346FFF79BFF6D1C9C
:101FA0004D45C7D9BDE8F09F2DE9FF4F85B080466C
:101FB0008946129F002003900290B84507DB0798DE
:101FC000B84204DBB94502DB0898B84202DA09B02E
:101FD000BDE8F08F0798A0EB08040898A0EB09056E
:101FE000CDF80480CDF80090002C02DD4FF0010AFE
:101FF00006E014B94FF0000A02E04FF0FF3A6442E5
:10200000002D02DD4FF0010B06E015B94FF0000B7B
:1020100002E04FF0FF3B6D42AC4201DD264600E09E
:102020002E460020049023E0009A91B2019A90B2CB
:102030003A46139BFFF760FF0398204403900298F1
:10204000284402900398B04205DD0398801B03905A
:102050000198504401900298B04205DD0298801B1F
:1020600002900098584400900498401C80B204905C
:10207000711C04988842D7DD00BFA8E788B000240F
:102080000025002686490868804700F0B7FB85A038
:10209000FEF7A4FF0120864900900988183988B20C
:1020A00084A310220021FEF799FB4FF47840824967
:1020B00008807F49009009881E398AB27C490988C6
:1020C000343988B212230221FEF786F8E6E074481C
:1020D0004168002088470024CAE07148007C012143
:1020E000A140084000287DD06D48083030F8140029
:1020F0006F490988884276DA69480C3030F8140054
:102100006B4949888842F6DA03A830F824004FF674
:10211000FF7188420DD16248083030F8140003A9DD
:1021200021F824005E480C3030F8140001EB8401E3
:102130004880614800880521594F0C37CDE90010CF
:1021400037F814303F1F37F8142003AF07EB84072C
:10215000798803AF37F82400FFF726FF504808308E
:1021600030F8140003A921F824004D480C3030F851
:10217000140001EB840148804948083030F81410FD
:102180004B4800881838814224DD45480C3030F82F
:10219000140010281EDA49A0FEF720FF0120444950
:1021A00000900988183988B242A310220021FEF756
:1021B00015FB4FF47840404908803D49009009885C
:1021C0001E398AB23A490988343988B21223022169
:1021D000FEF702F83248083030F81410344800880E
:1021E0003C3801E03DE041E0814233DD2C480830DD
:1021F00030F814102E4800881E3881422ADA284808
:102200000C3030F81400142824DA052096FBF0F185
:1022100000FB11602F4931F810702549009709889B
:102220001E398AB222490988343988B21223022120
:10223000FDF7D2FF3046711CCEB2052190FBF1F2C2
:1022400001FB1200234931F810001B4908801420BB
:1022500001F060FB1248007C00F0E00010490874B7
:1022600004E04FF6FF7003A921F82400601CC4B2FB
:10227000022CFFF632AF052001F04CFB681CC5B202
:10228000142095FBF0F100FB115038B9124800689A
:1022900008B9012000E000200F49086017E700009E
:1022A00024000020435450B2E2CAD42100000000B0
:1022B00054000020525354001E000020B2E2CAD441
:1022C000393A546F75636820546573742020202058
:1022D0002020000014000020B401224210B5044662
:1022E0004FF40070FE490860802008602146FD48D8
:1022F00000F014FA4FF40070F949091F086010BD8E
:1023000010B504464FF40070F54908608020091F9D
:1023100008602146F34800F001FA4FF40070F049DC
:10232000091F086010BD70B505460C462846FFF72A
:10233000D5FFE0B2FFF7E4FF70BD10B5EA49087AB7
:10234000FFF7CCFF10BD10B504464FF40070E44910
:1023500008608020091F08602112E24800F0DEF9C1
:10236000E1B2E04800F0DAF94FF40070DC49091FEF
:10237000086010BD2DE9F04104460D4616461F4683
:10238000D949887AFFF7AAFFD749897B2144C1F34D
:102390000720FFF7B5FFD449897B2144C8B2FFF776
:1023A000AFFFD149897B3144C1F30720FFF7A8FF74
:1023B000CD49897B3144C8B2FFF7A2FFCA49087BE7
:1023C000FFF78CFFC849C97B2944C1F30720FFF7F9
:1023D00097FFC549C97B2944C8B2FFF791FFC2499D
:1023E000C97B3944C1F30720FFF78AFFBE49C97B87
:1023F0003944C8B2FFF784FFFFF79FFFBDE8F081C3
:1024000070B504460D462B46224629462046FFF766
:10241000B1FF70BD70B504460D4629462046FFF752
:10242000EFFFB2480088FFF78EFF70BD70B506461B
:10243000AD484088401E83B2AB480088401E82B23F
:1024400000210846FFF796FF4FF40070A44908608A
:102450008020091F086000240AE0002503E03046C0
:10246000FFF771FF6D1CA0480088A842F7D8641CD4
:102470009D484088A042F0D84FF400709849091F49
:10248000086070BD08B50121082001F03FF84FF445
:102490007070ADF8000003208DF8020010208DF858
:1024A000030069468E48143800F074FD08BD10B56D
:1024B0004FF480708A490860642001F02BFA4FF4D1
:1024C00080708749091F0860322001F023FA10BD8F
:1024D00010B504462A20844948812B2088812C206D
:1024E000088134B1012C12D0022C1ED0032C3AD119
:1024F0002AE0F0207C4908804FF494704880002046
:102500008873C87300213620FFF70DFF2CE04FF4CD
:10251000947075490880F020488000208873C87343
:1025200060213620FFF7FFFE1EE0F0206E49088094
:102530004FF494704880002088731820C873C0211D
:102540003620FFF7F0FE0FE04FF4947066490880E4
:10255000F0204880182088730020C873A0213620FE
:10256000FFF7E1FE00E000BF00BF10BD10B500F0B6
:10257000F9F8FFF787FFFFF79AFF3620FFF7AEFE67
:102580000020FFF7BDFE3A20FFF7A8FE0520FFF769
:10259000B7FEB220FFF7A2FE0C20FFF7B1FE0C2021
:1025A000FFF7AEFE0020FFF7ABFE3320FFF7A8FEDB
:1025B0003320FFF7A5FEB720FFF790FE3520FFF789
:1025C0009FFEBB20FFF78AFE1920FFF799FEC0206F
:1025D000FFF784FE2C20FFF793FEC220FFF77EFE5C
:1025E0000120FFF78DFEC320FFF778FE1220FFF7D2
:1025F00087FEC420FFF772FE2020FFF781FEC62071
:10260000FFF76CFE0F20FFF77BFED020FFF766FE82
:10261000A420FFF775FEA120FFF772FEE020FFF770
:102620005DFED020FFF76CFE0420FFF769FE0D2051
:10263000FFF766FE1120FFF763FE1320FFF760FE31
:102640002B20FFF75DFE3F20FFF75AFE5420FFF7D7
:1026500057FE4C20FFF754FE1820FFF751FE0D20C7
:10266000FFF74EFE0B20FFF74BFE1F20FFF748FE43
:102670002320FFF745FEE120FFF730FED020FFF7D3
:102680003FFE0420FFF73CFE0C20FFF739FE11202F
:10269000FFF736FE1320FFF733FE2C20FFF730FE46
:1026A0003F20FFF72DFE4420FFF72AFE5120FFF7C1
:1026B00027FE2F20FFF724FE1F20FFF721FE1F20FB
:1026C000FFF71EFE2020FFF71BFE2320FFF718FE5A
:1026D0002120FFF703FE1120FFF700FE782007E01E
:1026E000140C014000300140540000201E00002066
:1026F00001F010F92920FFF7F1FD3C2001F00AF963
:102700000020FFF7E5FE0120034908604FF6FF7047
:10271000FFF78CFE10BD000098812142024600BFE9
:10272000108900F002000028FAD0918100BF1089C2
:1027300000F001000028FAD09089C0B270470288EA
:102740004FF6C7731A400280012902D10288028025
:1027500003E0028842F020020280028842F0400238
:102760000280704700B587B00121052000F0CEFE41
:10277000A020ADF8040003208DF8060018208DF885
:10278000070001A91B4800F005FC4020ADF804003B
:1027900048208DF8070003208DF8060001A9154890
:1027A00000F0F8FB0121080300F0B0FE0020ADF8B6
:1027B00008004FF48270ADF80A000020ADF80C005C
:1027C000ADF80E00ADF810004FF40070ADF8120037
:1027D0000020ADF81400ADF816000720ADF8180081
:1027E00002A9054800F01CFF0121034800F0BDFFCD
:1027F00007B000BD000801400030014008B50121CC
:10280000102000F083FE4FF40050ADF800001020BF
:102810008DF8030003208DF802006946044800F09B
:10282000B9FB4FF40051024800F061FC08BD000004
:102830000010014070B504460D4600F0DDF92A2075
:1028400000F071FA00F00DFAE0B200F06CFA00F05E
:1028500008FA284600F067FA00F003FA00F0E8F9F9
:102860000126304670BD2DE9F04107460D4616465B
:102870004FF0000800F0C0F92A2000F054FA00F0F0
:10288000F0F9F8B200F04FFA00F0EBF900F0B4F90B
:102890002B2000F048FA00F0E4F900240DE0681E57
:1028A000A04204D1002000F060FA305503E001207E
:1028B00000F05BFA3055601CC4B2AC42EFDB00F0B4
:1028C000B7F94FF001084046BDE8F08108B500F0C7
:1028D0002CF94FF48061794800F00BFC0221774815
:1028E00000F007FC322001F015F80221734800F0D7
:1028F000FEFB322001F00EF84FF480616F4800F0CB
:10290000F6FB322001F006F800F05DF9142001F02A
:1029100001F86A460121A720FFF7A5FF08BDF1B520
:1029200082B00024002766480078401C6449087083
:10293000084600780A2190FBF1F201FB120018B161
:102940005F4800780A287DDA02AA01210220FFF7F9
:102950008AFF9DF8080000F0800050B19DF8080043
:1029600000F00F00062804DA002529460220FFF7B0
:1029700061FF9DF8080000F00F00002866D09DF868
:10298000080000F00F00062860DA9DF8080000F04B
:102990000F01FF208840C5B24A48067CE843C0B218
:1029A00040F0C10047490874084601894181818986
:1029B000C18100242CE04348007C0121A140084053
:1029C00020B3414931F8140001AA0421FFF74BFF5D
:1029D0009DF805009DF8041001F00F0100EB0120A7
:1029E000C0F1F00081B23748083020F814109DF88B
:1029F00007009DF8061001F00F0100EB0120C0F563
:102A0000947081B22F480C3020F81410601CC4B2AE
:102A1000022CD0DB01272B480089F02804DC294850
:102A20008089B0F5947F1EDD9DF8080000F00F004E
:102A300001280CDD23484089224908810846C089C5
:102A4000888100E013E000201D4908702CE01D483B
:102A500040891C4908810846C089888180200290ED
:102A60000846067420E00020154908701CE015484F
:102A7000007C00F0810070B11248007C20F08000E2
:102A8000104908740020088188810846007C00F005
:102A9000E000087408E000200A490881888108469F
:102AA000007C00F0E000087405480078F02802DDA2
:102AB0000A20034908703846FEBD000000080140A6
:102AC0003800002024000020485E000808B50121DD
:102AD000042000F01BFD4FF40070ADF8000048200A
:102AE0008DF803006946B44800F054FA4FF40071C1
:102AF000B14800F0FEFA08BD08B50121042000F03D
:102B000005FD4FF40070ADF8000010208DF80300B3
:102B100003208DF802006946A74800F03BFA4FF405
:102B20000071A54800F0E3FA08BD08B501210C20AA
:102B300000F0ECFC0220ADF8000010208DF803003E
:102B400003208DF8020069469B4800F023FA022119
:102B5000994800F0CCFA4FF48060ADF800001020E6
:102B60008DF8030003208DF802006946924800F0BA
:102B700011FA4FF48061904800F0B9FA4FF40070F8
:102B8000ADF8000010208DF8030003208DF802003E
:102B90006946894800F0FEF94FF40071864800F05C
:102BA000A6FA2020ADF8000010208DF803000320C5
:102BB0008DF802006946814800F0ECF920217F4839
:102BC00000F095FA08BD08B50121042000F09EFC34
:102BD0000220ADF8000004208DF803006946764815
:102BE00000F0D8F90221744800F083FA08BD10B54E
:102BF0000A2000F0ABFE10BD10B5FFF77DFF4FF4CB
:102C000000716D4800F073FA20216C4800F06FFAF3
:102C10000A2000F09BFE4FF40071674800F069FA4B
:102C2000052000F093FE2021644800F062FA10BDF8
:102C300010B5FFF761FF2021604800F05AFA4FF409
:102C400000715D4800F055FA052000F07FFE20215C
:102C50005A4800F04CFA4FF40071574800F047FA18
:102C600010BD10B50024FFF731FF4FF4007152483A
:102C700000F03DFA2021514800F039FA052000F01B
:102C800065FE07E0601CC4B2FA2C03DDFFF7D0FF3D
:102C9000012010BD4FF40071474800F00EFA0028E3
:102CA000F0D12021454800F024FA0020F1E710B5CA
:102CB0002021424800F01DFAFFF71EFF052000F01A
:102CC00045FE4FF400713C4800F013FA052000F077
:102CD0003DFE2021394800F00AFA052000F036FEBA
:102CE0002021364800F005FA10BD10B520213348E8
:102CF00000F0FFF9FFF700FF052000F027FE4FF47A
:102D000000712D4800F0F3F9052000F01FFE20218E
:102D10002A4800F0ECF9052000F018FE2021274891
:102D200000F0E7F910BD70B50446FFF7E5FE20217D
:102D3000224800F0DEF9002514E0E009204908608F
:102D40006006040E20211D4800F0D1F9052000F096
:102D5000FDFD2021194800F0CCF9052000F0F6FD1A
:102D6000681CC5B2082DE8DB70BD70B50546FFF7DD
:102D7000ADFE002616E02021104800F0BAF905202B
:102D800000F0E4FD20210D4800F0B1F96006040ECA
:102D90004FF40071084800F090F908B1601CC4B20B
:102DA000701CC6B2082EE6DB15B9FFF79EFF01E0E6
:102DB000FFF77DFF204670BD00080140000C014078
:102DC000A401214208480047FEE7FEE7FEE7FEE7D0
:102DD000FEE7FEE7FEE7FEE7FEE7FEE703480449FD
:102DE000024A044B70470000ED000008A8010020D3
:102DF000A8030020A801002031490143314A116095
:102E0000704770B5002100230F22C47804B32D4C05
:102E1000246804F4E064C4F5E064210AC1F1040309
:102E2000CA40447804FA03F184781440214309012C
:102E3000254C0678A155047804F01F050124AC4008
:102E400005786D11AD0005F1E025C5F8004109E0F8
:102E5000047804F01F050124AC401C4D067876115F
:102E600045F8264070BD1A4A0A400243154B1B1F05
:102E70001A60704739B1134A121D12680243114B90
:102E80001B1D1A6006E00F4A121D126882430D4B8B
:102E90001B1D1A607047042808D14FF0E021096912
:102EA00041F004014FF0E022116107E04FF0E02112
:102EB000096921F004014FF0E02211617047000020
:102EC0000000FA050CED00E000E400E080E100E025
:102ED00080FFFF1F10B50446CC48844208D1012171
:102EE000042000F02DFB0021042000F029FB46E027
:102EF000C748844208D10121082000F021FB0021AD
:102F0000082000F01DFB3AE0C248844208D10121AC
:102F1000102000F015FB0021102000F011FB2EE026
:102F2000BD48844208D10121202000F009FB002186
:102F3000202000F005FB22E0B848844208D101219E
:102F4000402000F0FDFA0021402000F0F9FA16E0E0
:102F5000B348844208D10121802000F0F1FA002119
:102F6000802000F0EDFA0AE0AE48844207D101214A
:102F7000801500F0E5FA0021A01500F0E1FA10BD7F
:102F800010B50121084600F0DBFA0021012000F015
:102F9000D7FA10BD2DE9F041024600250026002099
:102FA00000230024002791F803C00CF00F0591F8CE
:102FB00003C00CF0100CBCF1000F03D091F802C05C
:102FC0004CEA050591F800C0BCF1000F31D014683F
:102FD00000202BE04FF0010C0CFA00F3B1F800C018
:102FE0000CEA03069E4220D183004FF00F0C0CFA2E
:102FF00003F7BC4305FA03FC4CEA040491F803C050
:10300000BCF1280F06D14FF0010C0CFA00FCC2F8FD
:1030100014C00AE091F803C0BCF1480F05D14FF08D
:10302000010C0CFA00FCC2F810C0401C0828D1D3D7
:103030001460B1F800C0BCF1FF0F34DD546800200B
:103040002EE000F1080C4FF0010808FA0CF3B1F87B
:1030500000C00CEA03069E4221D183004FF00F0C02
:103060000CFA03F7BC4305FA03FC4CEA040491F89C
:1030700003C0BCF1280F05D100F1080C08FA0CF8C8
:10308000C2F8148091F803C0BCF1480F07D100F1D9
:10309000080C4FF0010808FA0CF8C2F81080401C28
:1030A0000828CED35460BDE8F0814FF6FF7101804F
:1030B000022181700421C17070470246002093688C
:1030C0000B400BB1012000E00020704701468868EA
:1030D00080B2704702460020D3680B400BB101203C
:1030E00000E0002070470146C86880B27047016167
:1030F0007047416170470AB1016100E0416170476A
:10310000C16070474FF480320A43826181618261FD
:1031100082698269704702460020434B18684FF667
:103120008073184040EA021008433F4B1860704714
:103130003E49C8617047F0B50A46002300240021CB
:10314000002500F00046B6F1004F02D1364EF1697D
:1031500001E0354E7168C0F3034583B200F44016B8
:10316000B6F5401F08D121F070612F4E766826F029
:1031700070662D4F7E6012E000F48016B6F5801F59
:1031800006D1032606FA05F4A14341F0706106E07A
:10319000460D360103FA06F6B14341F0706122B1E3
:1031A000460D360103FA06F6314300F00046B6F14B
:1031B000004F02D11C4EF16101E01B4E7160F0BD69
:1031C00030B500228B071C0F0F2303FA04F2164BB5
:1031D00008338C1053F824309343134C08348D106B
:1031E00044F8253023468C1053F824308C07240FE4
:1031F00000FA04F423430C4C08348D1044F82530B5
:1032000030BD0A49DC310860704700000008014009
:10321000000C014000100140001401400018014062
:10322000001C01400020014000000140000020423D
:10323000DF48006840F00100DD490860084640684A
:10324000DC490840DA49486008460068DA49084025
:10325000D74908600846006820F4802008600846C6
:10326000406820F4FE0048604FF41F0088607047FB
:10327000CF49096821F48031CD4A116011460968AF
:1032800021F480211160B0F5803F03D0B0F5802F8C
:103290000ED106E0C649096841F48031C44A116084
:1032A00007E0C349096841F4A021C14A116000E068
:1032B00000BF00BF704710B5014600220023002068
:1032C0004A11012A02D1BA4C236806E0022A02D12F
:1032D000B74C236A01E0B64C636A01F01F02012477
:1032E00094401C400CB1012000E0002010BD38B516
:1032F000002000900024002500BF3120FFF7DBFFF5
:1033000005460098401C00900098B0F5A06F01D0D1
:10331000002DF2D03120FFF7CEFF08B1012400E0EC
:103320000024204638BD01460020A14A106820F044
:10333000F80040EAC10010607047A049086070477B
:10334000024600209A4B586820F47C1042EA0103A0
:103350001843974B58607047984908667047014674
:103360000020934A506820F00300084350607047E3
:103370008F48406800F00C007047014600208C4ADE
:10338000506820F0F000084350607047014600206C
:10339000874A506820F4E060084350607047014657
:1033A0000020834A506820F4605040EAC100506019
:1033B000704729B17E4A527A02437D4B5A7204E02B
:1033C0007B4A527A82437A4B5A7270477B49D83192
:1033D0000860704701460020754A506820F440405C
:1033E0000843506070470021714A20321170704AC2
:1033F00082F82010012802D004280AD104E001211B
:103400006B4A2032117005E00521694A20321170A3
:1034100000E000BF00BF7047694908607047644919
:10342000096A0143624A116270476549443908607C
:10343000704730B500210022002400235C4D6D68E8
:1034400005F00C0121B1042905D0082923D105E09C
:103450005C4D056022E05B4D05601FE0544D6D68DA
:1034600005F47012524D6D6805F48034022505EBA9
:1034700092421CB9544D554305600BE04C4D6D68AC
:1034800005F400351DB1504D5543056002E04D4D2A
:103490005543056002E04B4D056000BF00BF444D41
:1034A0006D6805F0F0010909484D6B5C0568DD4069
:1034B00045603F4D6D6805F4E061090A434D6B5C62
:1034C0004568DD4085603A4D6D6805F46051C90A74
:1034D0003E4D6B5C4568DD40C560354D6D6805F45B
:1034E0004041890B3A4D6B5CC568B5FBF3F505614E
:1034F00030BD29B12E4A526902432D4B5A6104E076
:103500002B4A526982432A4B5A61704729B1284A93
:1035100092690243264B9A6104E0254A92698243EC
:10352000234B9A61704729B1214AD2690243204B4B
:10353000DA6104E01E4AD26982431D4BDA617047AA
:1035400029B11B4AD2680243194BDA6004E0184AD9
:10355000D2688243164BDA60704729B1144A126967
:103560000243134B1A6104E0114A12698243104B63
:103570001A61704712494039086070470F49C864A2
:1035800070470B49C87170470948406A40F0807025
:1035900007494862704701460020054A92680A4080
:1035A0000AB1012000E0002070470149887270478D
:1035B000001002400000FFF8FFFFF6FE000042424C
:1035C0008004424200127A0000093D0039000020C8
:1035D0004900002010B50446BE48844208D10121AC
:1035E0008014FFF7ADFF0021A014FFF7A9FF16E03C
:1035F000B948844208D101210014FFF7AEFF002131
:103600002014FFF7AAFF0AE0B448844207D1012141
:10361000C013FFF7A2FF0021E013FFF79EFF10BDCC
:1036200010B50022028802F441520B884C882343D3
:103630008C882343CC8823430C8923434C89234320
:103640008C892343CC8923431A430280838B4FF216
:10365000FF74234083830B8A038210BD2DE9F04F52
:1036600085B005460C464FF0000902274FF00008D0
:103670004FF0010B0026B246A88B4FF240010840E4
:10368000A88302202884B5F81C90A068022801D1E4
:1036900000BF38E0A08810B94FF0010B01E04FF0F7
:1036A000020B8D48854200D100E000BF6846FFF75D
:1036B000C0FEDDF800A0E088B0F5007F0AD14FEA37
:1036C0001A2000EB80004000A168B0FBF1F0401D23
:1036D00086B20BE04FEA4B10BAFBF0F000EB800033
:1036E0004000A168B0FBF1F0401D86B20A20B6FB95
:1036F000F0F606F00108A6EB0800C0F34F074FF6FE
:10370000FF7000EA0828022F01DBFF2F02DD0227ED
:103710004FF00008E08840EA080038432884A08879
:10372000A1890843618808432188084340F4006068
:1037300040EA0909A5F81C9005B0BDE8F08F00210A
:10374000018041808180C180018141818181C1816D
:103750000721018270470021018041808180C18062
:103760000221816000218181704721B1028842F0ED
:103770004002028004E002884FF6BF731A400280C4
:10378000704721B1828B42F48062828304E0828B95
:103790004FF6FF331A408283704730B50024002370
:1037A0000C110125A540ABB21AB185881D43858057
:1037B00002E085889D43858030BD1AB183880B4324
:1037C000838002E083888B438380704781817047C8
:1037D0000146888970474FF6FF62914204D0028803
:1037E00042F48072028004E002884FF6FF631A40C0
:1037F0000280704721B1828842F00402828004E096
:1038000082884FF6FB731A408280704702884FF21D
:10381000FF731A40028002880A43028070470188C1
:1038200041F480510180704721B1028842F4005276
:10383000028004E002884DF6FF731A400280704750
:1038400002460020012901D0108B00E0908A7047C9
:103850000146088A7047B1F5804F04D1028842F4CE
:103860008042028004E002884BF6FF731A40028017
:1038700070470246002013890B400BB1012000E085
:1038800000207047CA4302817047F0B5024600200D
:1038900000240023002501F00F070126BE40B4B22A
:1038A0000B1101269E40B3B2968806EA03051689DD
:1038B000264016B10DB1012000E00020F0BD10B58A
:1038C000002201F00F040123A3409AB2D3430381E5
:1038D00010BD00000030014000380040003C0040B6
:1038E00010B504466FF00400FFF7D5FAE11704EBBA
:1038F0005171C1F3C701234A11701046007800EBE3
:103900004001C1EBC0104FF6FF7101EAC0001E4933
:10391000088010BD01461C4A12884A434FF0E0233C
:103920005A6100229A6101221A6100BF4FF0E02221
:10393000106900F001021AB100F48032002AF5D0BB
:1039400000224FF0E0231A619A61704701460D4A48
:1039500012784A434FF0E0235A6100229A61012213
:103960001A6100BF4FF0E022106900F001021AB1A5
:1039700000F48032002AF5D000224FF0E0231A61D3
:103980009A6170474E000020500000200B4910B58E
:10399000A1F17C020A4CC2E93712372106E000EBA4
:1039A000104342F82130074B00FB03400B1EA1F1EE
:1039B0000101F4DC10BD0120E8E70000E000002078
:1039C000E119D666CD0D010010B5431C02E010F8D8
:1039D000011B71B18107FAD14FF0013202C88C1A74
:1039E0008C4314EAC211F9D0C01A0A0603D0C01ED3
:1039F00010BDC01A10BD0A0401D0801E10BD0902FE
:103A0000FCD0401E10BD704770477047754600F0EF
:103A10002BF8AE4605006946534620F00700854660
:103A200018B020B5FFF7DAF9BDE820404FF00006E6
:103A30004FF000074FF000084FF0000B21F0070196
:103A4000AC46ACE8C009ACE8C009ACE8C009ACE8D9
:103A5000C0098D46704710B50446AFF3008020467C
:103A6000BDE81040FCF78BBB0048704748010020C0
:103A70007047000001491820ABBEFEE72600020097
:103A8000000000000000000000000000000004042E
:103A9000040404040004000000140A0A00000000EA
:103AA00000000000000014143F140A3F0A0A00003E
:103AB00000041E1505060C14150F04000000121555
:103AC0000D0A142C2A1200000000040A0A1E151503
:103AD00009360000000202010000000000000000A2
:103AE0000020100808080808081020000002040838
:103AF000080808080804020000000004150E0E154E
:103B00000400000000000404041F0404040000007A
:103B100000000000000000000002020100000000A0
:103B2000001F000000000000000000000000000076
:103B3000000200000010080808040402020201004C
:103B400000000E1111111111110E000000000406E9
:103B500004040404040E000000000E111108040205
:103B6000011F000000000E11100C1010110E0000BB
:103B70000000080C0A0A091E0818000000001F01B6
:103B8000010F1010110E000000000E09010F11119D
:103B9000110E000000001F090804040404040000C2
:103BA00000000E11110E1111110E000000000E1177
:103BB00011111E10120E0000000000000400000091
:103BC00000040000000000000004000000040400E5
:103BD000002010080402040810200000000000006B
:103BE0001F00001F00000000000204081020100841
:103BF0000402000000000E1111080404000400007B
:103C000000000E111915151D011E0000000004040E
:103C10000C0A0A1E1233000000000F12120E1212BC
:103C2000120F000000001E1101010101110E000021
:103C300000000F1212121212120F000000001F12C9
:103C40000A0E0A02121F000000001F120A0E0A02CA
:103C50000207000000001C1201013911120C0000C3
:103C600000003312121E12121233000000001F0453
:103C700004040404041F000000003E0808080808AB
:103C800008090700000037120A060A0A1237000066
:103C90000000070202020202223F000000001B1B7C
:103CA0001B1B15151515000000003B1216161A1ADD
:103CB0001217000000000E1111111111110E000059
:103CC00000000F12120E02020207000000000E1187
:103CD00011111117190E180000000F12120E0A12FE
:103CE0001237000000001E1101060810110F00001D
:103CF00000001F1504040404040E00000000331229
:103D000012121212120C000000003312120A0A0CD6
:103D10000404000000001515150E0A0A0A0A000026
:103D200000001B0A0A04040A0A1B000000001B0A08
:103D30000A040404040E000000001F090804040221
:103D4000121F0000001C04040404040404041C00EA
:103D5000000202020404080808100000000E08080F
:103D60000808080808080E0000040A000000000007
:103D70000000000000000000000000000000003F04
:103D8000000400000000000000000000000000002F
:103D9000000C121C123C000000000302020E121262
:103DA000120E000000000000001C1202021C0000A5
:103DB00000001810101C1212123C0000000000003D
:103DC000000C121E021C000000003804041E040433
:103DD000041E000000000000003C120C021E221C09
:103DE00000000302020E121212370000000004004D
:103DF00000060404040E000000000800000C08087F
:103E00000808080700000302023A0A0E12370000F1
:103E10000000070404040404041F00000000000064
:103E2000000F15151515000000000000000F1212FC
:103E30001237000000000000000C1212120C0000EB
:103E400000000000000F1212120E02070000000016
:103E5000001C1212121C103800000000001B060289
:103E60000207000000000000001E020C101E0000EF
:103E700000000004040E0404041800000000000008
:103E8000001B1212123C0000000000000037120A52
:103E90000C040000000000000015150E0A0A0000C6
:103EA00000000000001B0A040A1B000000000000C4
:103EB0000037120A0C04040300000000001E08046E
:103EC000041E000000180808080408080808180064
:103ED0000808080808080808080808080006040474
:103EE0000408040404040600022518000000000071
:103EF00000000000000000000000000000000000C2
:103F00000000000000000008080808080808000079
:103F10001818000000486C24120000000000000087
:103F2000000000000000002424247F1212127F12DF
:103F3000121200000000081C2A2A0A0C1828282A3D
:103F40002A1C080800000022251515152A5854546B
:103F5000542200000000000C1212120A76252911CA
:103F6000916E00000006060403000000000000003F
:103F70000000000000402010100808080808081081
:103F80001020400000020408081010101010100843
:103F9000080402000000000008086B1C1C6B0808E5
:103FA0000000000000000000080808087F0808085A
:103FB00008000000000000000000000000000000F9
:103FC000060604030000000000000000FE000000E0
:103FD00000000000000000000000000000000000E1
:103FE0000606000000008040402020101008080451
:103FF00004020200000000182442424242424242AF
:1040000024180000000000080E0808080808080826
:10401000083E00000000003C4242422020100804FC
:10402000427E00000000003C4242201820404042F6
:10403000221C0000000000203028242422227E20A0
:10404000207800000000007E0202021A2640404252
:10405000221C0000000000382402021A26424242BC
:10406000241800000000007E222210100808080812
:10407000080800000000003C42424224182442424A
:10408000423C000000000018244242426458404074
:10409000241C0000000000000000181800000000B0
:1040A00018180000000000000000000800000000D8
:1040B0000008080400000040201008040204081052
:1040C000204000000000000000007F0000007F0092
:1040D000000000000000000204081020402010082A
:1040E000040200000000003C424246402010100044
:1040F000181800000000001C225A555555552D4235
:10410000221C00000000000808181414243C22425D
:1041100042E700000000001F2222221E22424242EB
:10412000221F00000000007C424201010101014207
:10413000221C00000000001F224242424242424232
:10414000221F00000000003F4212121E1212024203
:10415000423F00000000003F4212121E12120202F3
:10416000020700000000003C22220101017121220F
:10417000221C0000000000E7424242427E424242CE
:1041800042E700000000003E080808080808080888
:10419000083E00000000007C1010101010101010DD
:1041A0001010110F0000007722120A0E0A121222BC
:1041B000227700000000000702020202020202024F
:1041C000427F000000000077363636362A2A2A2A37
:1041D0002A6B0000000000E346464A4A52525262EF
:1041E000624700000000001C224141414141414121
:1041F000221C00000000003F424242423E020202F6
:10420000020700000000001C2241414141414D5382
:10421000321C60000000003F4242423E1212222245
:1042200042C700000000007C4242020418204042C5
:10423000423E00000000007F4908080808080808FE
:10424000081C0000000000E7424242424242424253
:10425000423C0000000000E74242222424141418CB
:10426000080800000000006B4949494955553622AD
:1042700022220000000000E74224241818182424F9
:1042800042E7000000000077222214140808080802
:10429000081C00000000007E2120101008040442C9
:1042A000423F0000007808080808080808080808C5
:1042B0000808780000000202040408080810102012
:1042C00020204040001E1010101010101010101070
:1042D00010101E0000384400000000000000000024
:1042E00000000000000000000000000000000000CE
:1042F000000000FF000608000000000000000000B1
:1043000000000000000000000000003C4278444231
:1043100042FC0000000000030202021A2642424250
:10432000261A0000000000000000003844020202CB
:10433000443800000000006040404078444242425F
:1043400064D80000000000000000003C427E020231
:10435000423C0000000000F08808087E08080808B9
:10436000083E0000000000000000007C22221C0229
:104370003C42423C000000030202023A46424242F2
:1043800042E700000000000C0C00000E08080808BE
:10439000083E0000000000303000003820202020BF
:1043A0002020221E0000000302020272120A1612CE
:1043B000227700000000000E080808080808080816
:1043C000083E0000000000000000007F92929292E0
:1043D00092B70000000000000000003B464242424D
:1043E00042E70000000000000000003C4242424260
:1043F000423C0000000000000000001B2642424238
:10440000221E0207000000000000007844424242E1
:10441000447840E000000000000000774C040404F1
:10442000041F0000000000000000007C42023C402D
:10443000423E0000000000000008083E080808088E
:1044400008300000000000000000006342424242C9
:1044500062DC000000000000000000E74224241499
:104460000808000000000000000000EB4949555515
:104470002222000000000000000000762418181816
:10448000246E000000000000000000E74224241415
:1044900018080807000000000000007E221008082D
:1044A000447E000000C0202020202010202020205A
:1044B0002020C0001010101010101010101010103C
:1044C000101010100006080808080810080808084E
:1044D000080806000C32C2000000000000000000C6
:1044E00000000000C9EE000027FC140414A4811091
:1044F00042084040104017FC2040E0E02150224894
:104500002C4620400040DBDA110411241124112430
:104510001124FD24112411241124112411241D24FB
:10452000E124422402040404CAD002000100000075
:104530007FFC0100010001003FF82108210821084B
:1045400021082128211001000100C9BD010001003E
:104550000100010021082108210821082108210863
:104560002108210821083FF800080000D1D20100ED
:104570002108210821083FF8000000007FFC04000A
:1045800004000FF818082808C8080FF80808B6AF84
:104590000000000000203E20007C002200227F223C
:1045A0001022102212221222224223423D82009C1B
:1045B000CCAC010001007FFC0100028004400A2015
:1045C0003118C0060100088848844812481287F054
:1045D0000000CAFD082049202A20083EFF442A4442
:1045E000494488A41028FE28221042106428182864
:1045F0003444C282D7D6020001007FFE400280040C
:104600001FE0004000800100FFFE010001000100EA
:10461000010005000200B5E70000010001001FF0E5
:10462000610C410441047FFC4104410441047FFCCE
:1046300001000102010201FCD7D3000000003FF895
:10464000001000600080010000807FFE00400040FC
:1046500000200020002018400780BCBC1020102043
:10466000102013FEFC201020102015FC1884308828
:10467000D04810501020105051882606CAF501006D
:104680000120011001107FFC038005400540092036
:104690001110210841048102010001000100D3D062
:1046A00002000200FFFE040004000FF008101810C2
:1046B0002FF0481088100FF008100810085008203C
:1046C000CFDE00007BF84A08520853F8620852080F
:1046D0004BF84A444A486A30522042104288430606
:1046E0004200B9AB008004800480084008401020DC
:1046F00020104208820604000440082010203FF0E9
:1047000010100000CBBE00003FF8000800087FE852
:10471000000800081F8810881088108810881F88DB
:10472000108800280010BBB600800080FC8004FCCC
:10473000050449082A401440104028A024A0451030
:104740008110020804040802D3AD00002080133C4D
:10475000122402240224F2241224122412B4132854
:1047600012201020282047FE0000C4FA090009008A
:1047700011FC320454489950114812441444114019
:10478000108002005104511290120FF0B4BF0000CB
:104790000020102013FE202026244A247A241224EC
:1047A000222423FC7C20002204227822003CC9AB76
:1047B0000000000004000FF0102020207FFC208467
:1047C0002084208420843FF82000200220021FFE45
:1047D000CCEE00000000204023FE204079FC2204A3
:1047E00023FC220423FC220423FC3A0465FA0198EA
:1047F0000204B3E40000010001007FFE0220041067
:10480000040808043FFC04420440044004420842F7
:104810001042607EBED800000000207E3E804880AE
:10482000488048FE48827F8208820C8214FA1284F3
:104830002280218040FED0CE000000007F8422082C
:10484000223022C0220222047FC8223022C2220249
:104850002204220822304040BBAD000000007FFE51
:1048600000000FF011101110111051125FF25112CF
:10487000511251124FF240027FFCD4B200000000EE
:104880007FFE47E24812481247E24FF250125012A0
:104890005112511242924472580A3FFCCDBC0000A2
:1048A00000003FFE440247F24C22536240824362C2
:1048B0005E1A41824062430240C240223FFCC6ACC5
:1048C000000000402040204020403FFE200020000B
:1048D00020003FE020102010201020104010401039
:1048E000CFD4000000003FFC200420043FFC200443
:1048F00020041FF824441448144814480C50044061
:104900007FFECABE000000003FFC00000000000067
:104910007FFE008008900888108810842084208200
:1049200040820780B2CB0000002008207FFE0020DC
:1049300000783F881108089009207FFE018003401D
:104940000D30310C4002B5A5000000100810042005
:104950003FF8210421043FFC210421043FF8010019
:104960007FFE010001000100D6D00000010001001F
:1049700001003FFC2104210421042104210421041D
:104980003FFC0100010001000100D3A20000000073
:1049900008207FFE0820092001003FF82108210897
:1049A00021081FF4014002200C10700ECEC400003C
:1049B0000100010000803F7C081008100410042052
:1049C000022002400180018002601C18E006D7DB53
:1049D00000000000102011FE2202220249FC5800B3
:1049E000300013FE2528792401240D24722202A20E
:1049F000BACF0000000001800240043018086006B1
:104A00001FF800001FF820042004200420042004C4
:104A10001FF8C1C10000010001007FFE00003FF847
:104A200020083FF83FF8400647C2482408200822E3
:104A30001022603EB6C80000000000803FFE441017
:104A40005FFC4410441043F040005FF844084230DB
:104A500041C04360BC1EB2E20000000067C21452B5
:104A600005520552C552255205520552155217528C
:104A7000228222424442483ECAD400000000201450
:104A8000101417FE00120010601013F01090109018
:104A90001090149214EA1F0A0006B3CC0000000024
:104AA00019FE7202120212027DFC18001BFE342055
:104AB000502053FE10201020102013FED0F20000D2
:104AC000000000803FFE400047FC4208413040C0EB
:104AD0005FFE404240424044404840404440B5F7B9
:104AE0000000000023FE122202FA0222E22212FE3D
:104AF0001272128A128A128A16BA1A421202040E0C
:104B0000B9E2000001000104110809080910092098
:104B10007FFE044004400440044008420842104222
:104B2000607CB0E60000000048FE490049004900F2
:104B30007EFE418241447944452845284510452858
:104B400046440382C8A800001000100013FC7D0436
:104B50001104190418843488504850501020105003
:104B6000108813041402CBF9000000003F7C2040A1
:104B700020403E40227E2244224422443E8420841F
:104B80002084408441044204C6C100003FF820084C
:104B900020083FF8241022202FF8222022203FFC5A
:104BA00022204220442084200820C4BB04407FFCF3
:104BB00004401FF010101FF010101FF00400FFFE43
:104BC00011103FF8D116115011200100D0FD2080A6
:104BD000108010FE0100FE0021FC20243C2424A0B3
:104BE00024A024BC24A024A04560553E8A00D7AA56
:104BF000202020202020FDFC4020504093FEFC403F
:104C0000108011FC1C04F08850501020101010105F
:104C1000BFAA00007FFC08200820082008200820E8
:104C2000FFFE082008200820082010201020202047
:104C30004020D4B4000027FE1420144085FC450415
:104C400045FC150415FC2524E42024A829242A2247
:104C500030A00040D2BA0080204017FE11208120F1
:104C6000423C4244166412942348E24822302220F7
:104C7000225022880306BEA70FE0082008200FE07C
:104C8000082008200FE000007EFC428442847EFC65
:104C9000428442847EFC4284CDF800007FFC4004C4
:104CA0004004421452944A54442444244A544A54DA
:104CB00052946104400440144008D5BE10200820DE
:104CC00008207E20003E04204420442025FC2904A6
:104CD00029040F04F104410401FC0104B0B41040A4
:104CE0001020102013FEFA02144410401BFE3088DE
:104CF000D088110810D01020105050882304BCFC1C
:104D0000201020103B7C211441FE7A14A27C271035
:104D1000F97C251025FE22102A10350028FE0000FF
:104D2000D0A310401020102011FEFC001088310488
:104D30003A0254885088905010501020105010881B
:104D40001306D7BC01404120212023FE022016205B
:104D50001BFC1220222023FCE2202220222023FE02
:104D600022000200B4A520202020782049FC9124B4
:104D70007D24552455247DFC552454207C2854241E
:104D800057FE45028C00C3FE1110111017FC1110C4
:104D9000FC0013F8120817F81A0833F8D04017FC73
:104DA00010A0111052082406C9EE000000000000F7
:104DB0001000000800080C7FFC04401001C8A0028D
:104DC000186042301832231812C300140300040381
:104DD0000C047FF0080F80080B4078136018332014
:104DE00018631818831C1903081803000003000037
:104DF0000000DBDA00000000000004100C04180CB6
:104E000004108C04108C04108C04108C04D08C3F83
:104E1000108C04108C04108C04108C04108C041062
:104E20008C04108C05F08C0E208C78208C20408C0B
:104E300000808C01000C02000C000000CAD00000B1
:104E40000000000000300000180000180800001CDE
:104E50001FFFE000180000182007FFF004182004CE
:104E600018200418200418200418200418200418FE
:104E7000200418200418200418E00418400018002A
:104E8000001800000000D6D0000000000000000064
:104E900000000000001800001800001800001800B2
:104EA0003FFFFE301806301806301806301806305E
:104EB00018063FFFFE301806001800001800001802
:104EC00000001800001800000000000000000000B2
:104ED000CEC4000000000000000000003800001CEC
:104EE00000000600FFFFFF060030060030030060F0
:104EF0000300600180C000C18000E30000360000B4
:104F00001C0000770003C1E01E003C6000070000A9
:104F100000000000000000000000B2E200000000FD
:104F2000000000000000000040000321FF3339832F
:104F300033118333019B33C19B33719B33199B33F3
:104F4000019B33019B33119B3319B3333030333022
:104F50006C0330C6036383032E01BE000000000013
:104F600000000000CAD400000000000000000000A3
:104F700000004000D83000CE1800C21C00C001FF65
:104F8000FF0000C0F800C01800C019FFC01818408A
:104F90001818601918601B18611E18311C1FB139D0
:104FA000F01910000F000000000000000000D7D62C
:104FB0000000000000060000000300000000C00028
:104FC0000001C0C0000107C00001FF00021FFE0079
:104FD00007F01C0007C070000F00E0000E03F00097
:104FE0001C0FF0003C0F70003C00E0001800C000F7
:104FF0000000C0000000C0000000600000002000B1
:10500000000037000001FF00007FF80007F83000C3
:105010001F8030000080300000C030000060600061
:105020000018E000000FC0000006000000000000B3
:10503000CCE50000000000000000000000C00000FF
:1050400000E0002001B800703FF80061FFC000C31D
:10505000030001C60600038C060003080C000608C6
:105060000C000E18183F1E101BF31F903F07008006
:105070003C1C0190707C019060FE01A0C3F801A06F
:105080000FD803A00818036000180340001803C0DD
:10509000001803800018030000180000001800002A
:1050A0000010000000300000003000000000000090
:1050B0000000B2E20000000000000000000000005C
:1050C00000000000020C1008071FF80403BFF002E4
:1050D00001BC300303EC3003015C600300D86003C3
:1050E00000D860038098620361B8430771B143063A
:1050F000313243063376C3063A64C7063EECC00637
:105100003E78C0063C3040067C70000678E06006C1
:105110007BFFF006F7C00006E40000064000000632
:10512000000000060000007C00008FF000007C0002
:1051300000000000CAD400000000000000000000D1
:10514000000000003F0000007F80000001800000A0
:1051500000C0000000C0000000CE038000CFFFC0F0
:1051600000DD41800FFE0007FFFC000C00F000187E
:105170000FC03E19FF40F311BC6083307FE003B1E4
:10518000FE200333802003700030036000100360B2
:10519000001807C0000C07C00004078000020100CF
:1051A00000030000000100000000000000000000FB
:1051B0000000000000000000FFFFFFFFFFFFFFFFF7
:1051C000FFFFFFFFFFFFFFFFFFFFFFFFFFFFFFFFEF
:1051D000FFFFFFFFFFFFBEF7FFFFDEFF38C6928C29
:1051E0008E6B6E6B107C96AD3CE7FFFFFFFFFFFF01
:1051F000FFFFFFFFFFFFFFFFFFFFFFFFFFFFFFFFBF
:10520000FFFFFFFFFFFFFFFFFFFFFFFFFFFFFFFFAE
:10521000FFFFFFFFFFFFFFFFFFFFFFFFFFFFFFFF9E
:10522000FFFFFFFFFFFF5DEF159D4F636C420A32EA
:105230008829461925194521E8318E6B38C6FFFFAC
:10524000FFFFFFFFFFFFFFFFFFFFFFFFFFFFFFFF6E
:10525000FFFFFFFFFFFFFFFFFFFFFFFFFFFFFFFF5E
:10526000FFFFFFFFFFFFFFFFFFFFFFFFFFFFFFFF4E
:10527000FFFFFFFF36A51053104B51530F4B6C3AF5
:10528000E93167212519E410A30862008308CB5295
:105290009AD6FFFFFFFFFFFFFFFFFFFFFFFFFFFFAC
:1052A000FFFFFFFFFFFFFFFFFFFFFFFFFFFFFFFF0E
:1052B000FFFFFFFFFFFFFFFFFFFFFFFFFFFFFFFFFE
:1052C0003CE77063B363B87CF56311434D32EA2960
:1052D000882126190519051904110411E410830009
:1052E000A308728CFFFFFFFFFFFFFFFFFFFFFFFF21
:1052F000FFFFFFFFFFFFFFFFFFFFFFFFFFFFFFFFBE
:10530000FFFFFFFFFFFFFFFFFFFFFFFFFFFFDBDEF2
:105310004B3AF042356C544BB1322E2AEB21A92185
:105320006719051904110411041104110411051958
:10533000E4104200AF73FFFFFFFFFFFFFFFFFFFF1F
:10534000FFFFFFFFFFFFFFFFFFFFFFFFFFFFFFFF6D
:10535000FFFFFFFFFFFFFFFFFFFFFFFF5DEF0932D2
:105360004C32104B8F324F2A2E2ACC1989198921A1
:105370004719051904110411C410C41004110411B3
:105380000411E41042003184FFFFFFFFFFFFFFFF25
:10539000FFFFFFFFFFFFFFFFFFFFFFFFFFFFFFFF1D
:1053A000FFFFFFFFFFFFFFFFFFFFFFFFEC5247196B
:1053B0004C320B2AEC21EC210C22915BEE4A0611B7
:1053C00026190419E410E410A7296621A308051979
:1053D00004110411E4108200F7BDFFFFFFFFFFFF7F
:1053E000FFFFFFFFFFFFFFFFFFFFFFFFFFFFFFFFCD
:1053F000FFFFFFFFFFFFFFFFFFFF35A583088821A9
:1054000088218921AA218A216B42718CFFFF728C2D
:1054100083080411C4082942FBDE5DEFEC5A8308BF
:105420000411041104118308E831DFFFFFFFFFFFBF
:10543000FFFFFFFFFFFFFFFFFFFFFFFFFFFFFFFF7C
:10544000FFFFFFFFFFFFFFFFBEF7C731C4102519A5
:10545000261947194719A8298A52284A55ADFFFF2E
:10546000E831A30805194D6B4D6BFFFF7DEF45211A
:10547000C410041104110411620076ADFFFFFFFF98
:10548000FFFFFFFFFFFFFFFFFFFFFFFFFFFFFFFF2C
:10549000FFFFFFFFFFFFFFFF96B562000411041935
:1054A00005110519C4088B4AB6B55DEFF7BDFFFFBE
:1054B0008E6B62002942AA5A0842FFFFFFFFCC52BE
:1054C0008308041104110411A308AD52FFFFFFFF6C
:1054D000FFFFFFFFFFFFFFFFFFFFFFFFFFFF1CE7D7
:1054E000FFFFFFFFFFFFFFFF4E6362000411041187
:1054F0000411E41062008E63FFFFFFFFFFFFFFFF58
:10550000CF730100F39C2C6396B5FFFFFFFF2D5B6B
:105510008300041104110411E41067213DEFFFFF23
:10552000FFFFFFFFFFFFFFFFF8BDB7B59EEFCB52B8
:10553000B394FFFFFFFFDFFFE831A308041104115C
:1055400004110411A3084942FFF7FFF7FFFFFFFF13
:105550006A4A01007284FFFFFFFFFFF7DFEF093A9D
:10556000A3080411041104110411051118BEFFFF52
:10557000FFFFFFFFFFFFFFFFF07B6200E831C73155
:10558000410035A5FFFF5DEF4621C4100411041151
:1055900004110411E410A308769DFFF7FFFFB7ADD7
:1055A000A308A308C7319EE7FFF7FFF776A5A30876
:1055B000E4100411041104110511051135A5FFFFB4
:1055C000FFFFFFFFFFFFFFFFDBDEA7298300C41003
:1055D000C410C4101CE79EEF0511E410041104115F
:1055E000041104110419C408E510D16BD16BC5086E
:1055F0006400A50843002B32779DB3842519C4109D
:10560000041104110411041125192609359DFFFF09
:10561000FFFFFFFFFFFFFFFFFFFFAF7362000419F3
:10562000051982000D5B8E9B621005110411041197
:105630000419E41085000511C439815A407B229C6D
:1056400043AC03A4839B82728249C218A400C500A4
:10565000E41004190411051947196711EC5ABEFF2B
:10566000FFFFFFFFFFFFFFFFDFFFDBDEC410E410E3
:1056700004110511A41801C08388E4000519041958
:10568000C5084421438323D542FEE4FE27FF07FFDC
:10569000A4FE64FE03FEA3FDE2FC42EC83B324629D
:1056A000E510C40804192619A81987210090D3BC55
:1056B000FFFFFFFFFFFFFFFFDFFFFFFF107C420048
:1056C00005190511832801D044F8A348E400C50852
:1056D000445A02EDE2FD02FE66FE74FFB8FF73FF5E
:1056E000E7F6A6F645F6A4F5C3FC62FCC2FCC2FCD4
:1056F000E3CBC449061188198701A49001F8EC9AFC
:10570000FFFFFFFFFFFFFFFFFFFFFFFFBEF7E831D7
:1057100083000509824001C023F885F0A348A40056
:10572000445A02FD23CCC2DC04FE28FE48F646F6AD
:1057300024F6E4F564FDE3FC62FCC2FC02E402DC56
:10574000E2FCA47A48016701C47824F802F884B026
:105750007DE7FFFFFFFFFFFFFFFFFFFFFFFFDBDE38
:105760002519A300C43802E022D844F8A6F8A4788A
:105770006300432183728339829B21F561FD22FD01
:10578000E2FCA2FC42FC42FC42FC22AB8341C392FD
:10579000045226012519A49844F823F802F8A4D04D
:1057A0009EEFFFFFFFFFFFFFFFFFFFFFFFFFFFFF7A
:1057B0009AD68729A50043B822F823E065F8E8F8CF
:1057C00007C983484200A30084006329A27A62B318
:1057D000A2CB62D302BB828A8339A400E500E50034
:1057E000E508C46064D844F824F823F802F88388F4
:1057F000DBC6FFFFFFFFFFFFFFFFFFFFFFFFFFFF16
:10580000FFFF3DE7505B083123E843F844F065F8BB
:1058100009F9ABF989D10689A34842180200420070
:1058200061008200620062008300A320C450A5884A
:1058300085D865F844F844F823F823F803D082109B
:10584000C7295DEFFFFFFFFFFFFFFFFFFFFFFFFF28
:10585000FFFFFFFFFFFF6C32A53802D823F865F881
:1058600066F8A7F84AF90CFA4DFA4CEA0BD2A9B936
:1058700068B147A927B107B907D1E7E8C7F8A7F882
:1058800065F865F844F823F803F802D0A328050961
:10589000C408EC5AFFFFFFFFFFFFFFFFFFFFFFFF02
:1058A000FFFFFFFFFBDE0519C400A741E6C003F8B8
:1058B00086F8A7F887F886F8C7F829F98AF9ABF9C6
:1058C000ABF98BF96AF929F908F9C7F8A6F886F84F
:1058D00065F864F823F802F006B12529E400E41025
:1058E00025192519149DFFFFFFFFFFFFFFFFFFFF95
:1058F000FFFFFFFF96AD620082083595BACE8BA2FE
:1059000044D025F887F8A7F8C7F8A7F887F886F8ED
:1059100086F886F887F8A7F8A7F8A6F885F865F856
:1059200064F824F064B80D93BBB6CF638308041108
:10593000E4106621493A5DEFFFFFFFFFFFFFFFFF25
:10594000FFFFFFFFD3944200E410BBCEFFFFBEE792
:1059500076B5CCAA07C145E045F846F866F886F862
:1059600086F886F886F865F845F865F865E844D065
:1059700043A8018882903CD7FFEF55958308041116
:10598000041105194619B394FFFFFFFFFFFFFFFF46
:10599000FFFFFFFFB394410086215DDFFFFFFFFFA4
:1059A000FFFFDFE77AC6D3B44EB32AC268D1E6E080
:1059B000A6E8A5E8A5E8E6D888C906A922A802A80D
:1059C00000A000C800D8F7E5FFE7F8ADC410E41068
:1059D0000411E41005118B4AFFFFFFFFFFFFFFFFDB
:1059E000FFFFFFFF55A54100A7295DDFFFF7FFFF80
:1059F000FFFFFFFFFFFFFFFFFFEF7DDFDBCE59CE95
:105A0000F8CDD7CDF7C579CEFBBEABA203F045F8F4
:105A100042D043E800F072D4FFDF39AEE410E41066
:105A20000411E41005118729FFFFFFFFFFFFFFFFAF
:105A3000FFFFFFFF59CE830846211CD7FFF7FFFF6A
:105A4000FFFFFFFFFFFFFFFFFFFFFFFFFFFFFFFF66
:105A5000FFFFFFFFFFFFFFFFFFEF8BBA04F845F8E2
:105A600062E044F000F88EDBFFDFF8A5C410E4101C
:105A7000E4100411E4102519FFFFFFFFFFFFFFFFF3
:105A8000FFFFFFFFBEF78729830839B6FFF7DFF76F
:105A9000FFFFFFFFFFFFFFFFFFFFFFFFFFFFFFFF16
:105AA000FFFFFFFFFFFFFFFFBEE74ABA03F845F81D
:105AB00064F844F800F86EE3FFD7F48C830804110F
:105AC000E410E410E4100519FFFFFFFFFFFFFFFFE4
:105AD000FFFFFFFFFFFFEF7300007284FFEFBEEFD9
